{
  "contractName": "Grocery",
  "abi": [
    {
      "constant": true,
      "inputs": [
        {
          "internalType": "uint256",
          "name": "",
          "type": "uint256"
        }
      ],
      "name": "goodsList",
      "outputs": [
        {
          "internalType": "string",
          "name": "name",
          "type": "string"
        },
        {
          "internalType": "string",
          "name": "img",
          "type": "string"
        },
        {
          "internalType": "bool",
          "name": "isClaim",
          "type": "bool"
        }
      ],
      "payable": false,
      "stateMutability": "view",
      "type": "function"
    },
    {
      "constant": false,
      "inputs": [
        {
          "internalType": "string",
          "name": "_name",
          "type": "string"
        },
        {
          "internalType": "string",
          "name": "_img",
          "type": "string"
        }
      ],
      "name": "AddGoods",
      "outputs": [
        {
          "internalType": "uint256",
          "name": "",
          "type": "uint256"
        }
      ],
      "payable": false,
      "stateMutability": "nonpayable",
      "type": "function"
    },
    {
      "constant": false,
      "inputs": [
        {
          "internalType": "uint256",
          "name": "_id",
          "type": "uint256"
        }
      ],
      "name": "Claim",
      "outputs": [],
      "payable": false,
      "stateMutability": "nonpayable",
      "type": "function"
    },
    {
      "constant": true,
      "inputs": [],
      "name": "GetAllGoods",
      "outputs": [
        {
          "components": [
            {
              "internalType": "string",
              "name": "name",
              "type": "string"
            },
            {
              "internalType": "string",
              "name": "img",
              "type": "string"
            },
            {
              "internalType": "bool",
              "name": "isClaim",
              "type": "bool"
            }
          ],
          "internalType": "struct Grocery.Goods[]",
          "name": "",
          "type": "tuple[]"
        }
      ],
      "payable": false,
      "stateMutability": "view",
      "type": "function"
    },
    {
      "constant": true,
      "inputs": [
        {
          "internalType": "uint256",
          "name": "_id",
          "type": "uint256"
        }
      ],
      "name": "GoodsOf",
      "outputs": [
        {
          "internalType": "address",
          "name": "",
          "type": "address"
        }
      ],
      "payable": false,
      "stateMutability": "view",
      "type": "function"
    }
  ],
  "bytecode": "0x6080604052600a60045534801561001557600080fd5b50610e60806100256000396000f3fe608060405234801561001057600080fd5b50600436106100575760003560e01c80630e9646461461005c57806328d27f091461008c5780637bb2b3c1146100be578063d42965a6146100da578063e6e290a0146100f8575b600080fd5b6100766004803603610071919081019061092c565b610128565b6040516100839190610c91565b60405180910390f35b6100a660048036036100a19190810190610998565b61027f565b6040516100b593929190610c0c565b60405180910390f35b6100d860048036036100d39190810190610998565b6103f3565b005b6100e2610624565b6040516100ef9190610bea565b60405180910390f35b610112600480360361010d9190810190610998565b6107e2565b60405161011f9190610bcf565b60405180910390f35b60008060018060405180606001604052808781526020018681526020016000151581525090806001815401808255809150509060018203906000526020600020906003020160009091929091909150600082015181600001908051906020019061019392919061081e565b5060208201518160010190805190602001906101b092919061081e565b5060408201518160020160006101000a81548160ff02191690831515021790555050500390503360008083815260200190815260200160002060006101000a81548173ffffffffffffffffffffffffffffffffffffffff021916908373ffffffffffffffffffffffffffffffffffffffff1602179055506001600360003373ffffffffffffffffffffffffffffffffffffffff1673ffffffffffffffffffffffffffffffffffffffff168152602001908152602001600020600082825403925050819055508091505092915050565b6001818154811061028c57fe5b9060005260206000209060030201600091509050806000018054600181600116156101000203166002900480601f0160208091040260200160405190810160405280929190818152602001828054600181600116156101000203166002900480156103385780601f1061030d57610100808354040283529160200191610338565b820191906000526020600020905b81548152906001019060200180831161031b57829003601f168201915b505050505090806001018054600181600116156101000203166002900480601f0160208091040260200160405190810160405280929190818152602001828054600181600116156101000203166002900480156103d65780601f106103ab576101008083540402835291602001916103d6565b820191906000526020600020905b8154815290600101906020018083116103b957829003601f168201915b5050505050908060020160009054906101000a900460ff16905083565b600454600360003373ffffffffffffffffffffffffffffffffffffffff1673ffffffffffffffffffffffffffffffffffffffff168152602001908152602001600020541315610477576040517f08c379a000000000000000000000000000000000000000000000000000000000815260040161046e90610c71565b60405180910390fd5b6001818154811061048457fe5b906000526020600020906003020160020160009054906101000a900460ff16156104e3576040517f08c379a00000000000000000000000000000000000000000000000000000000081526004016104da90610c51565b60405180910390fd5b3360008083815260200190815260200160002060006101000a81548173ffffffffffffffffffffffffffffffffffffffff021916908373ffffffffffffffffffffffffffffffffffffffff160217905550600180828154811061054257fe5b906000526020600020906003020160020160006101000a81548160ff021916908315150217905550600260003373ffffffffffffffffffffffffffffffffffffffff1673ffffffffffffffffffffffffffffffffffffffff1681526020019081526020016000208190806001815401808255809150509060018203906000526020600020016000909192909190915055506001600360003373ffffffffffffffffffffffffffffffffffffffff1673ffffffffffffffffffffffffffffffffffffffff1681526020019081526020016000206000828254019250508190555050565b60606001805480602002602001604051908101604052809291908181526020016000905b828210156107d95783829060005260206000209060030201604051806060016040529081600082018054600181600116156101000203166002900480601f0160208091040260200160405190810160405280929190818152602001828054600181600116156101000203166002900480156107045780601f106106d957610100808354040283529160200191610704565b820191906000526020600020905b8154815290600101906020018083116106e757829003601f168201915b50505050508152602001600182018054600181600116156101000203166002900480601f0160208091040260200160405190810160405280929190818152602001828054600181600116156101000203166002900480156107a65780601f1061077b576101008083540402835291602001916107a6565b820191906000526020600020905b81548152906001019060200180831161078957829003601f168201915b505050505081526020016002820160009054906101000a900460ff16151515158152505081526020019060010190610648565b50505050905090565b600080600083815260200190815260200160002060009054906101000a900473ffffffffffffffffffffffffffffffffffffffff169050919050565b828054600181600116156101000203166002900490600052602060002090601f016020900481019282601f1061085f57805160ff191683800117855561088d565b8280016001018555821561088d579182015b8281111561088c578251825591602001919060010190610871565b5b50905061089a919061089e565b5090565b6108c091905b808211156108bc5760008160009055506001016108a4565b5090565b90565b600082601f8301126108d457600080fd5b81356108e76108e282610cd9565b610cac565b9150808252602083016020830185838301111561090357600080fd5b61090e838284610db3565b50505092915050565b60008135905061092681610e06565b92915050565b6000806040838503121561093f57600080fd5b600083013567ffffffffffffffff81111561095957600080fd5b610965858286016108c3565b925050602083013567ffffffffffffffff81111561098257600080fd5b61098e858286016108c3565b9150509250929050565b6000602082840312156109aa57600080fd5b60006109b884828501610917565b91505092915050565b60006109cd8383610b69565b905092915050565b6109de81610d6b565b82525050565b60006109ef82610d15565b6109f98185610d38565b935083602082028501610a0b85610d05565b8060005b85811015610a475784840389528151610a2885826109c1565b9450610a3383610d2b565b925060208a01995050600181019050610a0f565b50829750879550505050505092915050565b610a6281610d7d565b82525050565b610a7181610d7d565b82525050565b6000610a8282610d20565b610a8c8185610d49565b9350610a9c818560208601610dc2565b610aa581610df5565b840191505092915050565b6000610abb82610d20565b610ac58185610d5a565b9350610ad5818560208601610dc2565b610ade81610df5565b840191505092915050565b6000610af6601883610d5a565b91507fe8afa5e59586e59381e5b7b2e7bb8fe8a2abe8aea4e9a28600000000000000006000830152602082019050919050565b6000610b36601e83610d5a565b91507fe682a8e5b7b2e7bb8fe9a286e58f96e79a84e8b6b3e5a49fe5a49ae4ba8600006000830152602082019050919050565b60006060830160008301518482036000860152610b868282610a77565b91505060208301518482036020860152610ba08282610a77565b9150506040830151610bb56040860182610a59565b508091505092915050565b610bc981610da9565b82525050565b6000602082019050610be460008301846109d5565b92915050565b60006020820190508181036000830152610c0481846109e4565b905092915050565b60006060820190508181036000830152610c268186610ab0565b90508181036020830152610c3a8185610ab0565b9050610c496040830184610a68565b949350505050565b60006020820190508181036000830152610c6a81610ae9565b9050919050565b60006020820190508181036000830152610c8a81610b29565b9050919050565b6000602082019050610ca66000830184610bc0565b92915050565b6000604051905081810181811067ffffffffffffffff82111715610ccf57600080fd5b8060405250919050565b600067ffffffffffffffff821115610cf057600080fd5b601f19601f8301169050602081019050919050565b6000819050602082019050919050565b600081519050919050565b600081519050919050565b6000602082019050919050565b600082825260208201905092915050565b600082825260208201905092915050565b600082825260208201905092915050565b6000610d7682610d89565b9050919050565b60008115159050919050565b600073ffffffffffffffffffffffffffffffffffffffff82169050919050565b6000819050919050565b82818337600083830152505050565b60005b83811015610de0578082015181840152602081019050610dc5565b83811115610def576000848401525b50505050565b6000601f19601f8301169050919050565b610e0f81610da9565b8114610e1a57600080fd5b5056fea365627a7a72315820c9da0aa49b2563b2fd129eee7659b6f537a48d27dc037c987e0e16f137b1b8226c6578706572696d656e74616cf564736f6c63430005100040",
  "source": "pragma solidity ^0.5.0;\r\npragma experimental ABIEncoderV2;\r\n\r\n\r\ncontract Grocery {\r\n    struct Goods {\r\n        string name;\r\n        string img;\r\n        bool isClaim;\r\n    }\r\n\r\n    mapping(uint => address) goodsMap;  // 商品的归属\r\n    Goods[] public goodsList;  // 所有商品列表\r\n    mapping(address => uint[]) claimList;  // 领取列表\r\n    mapping(address => int) claimNum; // 领取统计\r\n    int maxClaim = 10;  // 最大领取数量, 可以用过添加商品来得到更多的机会\r\n\r\n    // @notice 添加商品\r\n    function AddGoods(string memory _name, string memory _img) public returns (uint){\r\n        uint id = goodsList.push(Goods(_name, _img, false)) - 1;\r\n        goodsMap[id] = msg.sender;\r\n        claimNum[msg.sender] -= 1;\r\n        return id;\r\n    }\r\n\r\n    // @notice 领取商品\r\n    function Claim(uint _id) public {\r\n        require(claimNum[msg.sender] <= maxClaim, \"您已经领取的足够多了\");\r\n        require(!goodsList[_id].isClaim, \"该商品已经被认领\");\r\n        goodsMap[_id] = msg.sender;\r\n        goodsList[_id].isClaim = true;\r\n        claimList[msg.sender].push(_id);\r\n        claimNum[msg.sender] += 1;\r\n    }\r\n\r\n    // @notice 获取所有的商品\r\n    function GetAllGoods() public view returns (Goods[] memory){\r\n        return goodsList;\r\n    }\r\n\r\n    // @notice 获取商品归属地址\r\n    function GoodsOf(uint _id) public view returns (address) {\r\n        return goodsMap[_id];\r\n    }\r\n}",
  "sourcePath": "D:/MyDel/grocery-store-dapp/contracts/Grocery.sol",
  "compiler": {
    "name": "solc",
    "version": "0.5.16+commit.9c3226ce.Emscripten.clang"
  },
  "schemaVersion": "3.3.2",
  "updatedAt": "2020-12-03T10:59:19.667Z",
  "networkType": "ethereum",
  "devdoc": {
    "methods": {}
  },
  "userdoc": {
    "methods": {}
  }
}